:020000040000FA
:020000000B28CB
:10000800DE00030E8312A2000A08A30012280C289F
:100018008312B001B101B201830159280B1D1528C3
:10002800162836280B1130191A281B2823283309BB
:10003800A000A1012008A4002108A5002A28310950
:10004800A000A1012008A4002108A500240881001F
:100058000430B00630193128342883128715362821
:10006800831287110B1C39283A2852280B10B01418
:1000780007183F284128013042280030A000051900
:10008800462848280130492800302006031D4D28FD
:1000980050288312301452288312301023088A0003
:1000A800220E8300DE0E5E0E09009A20A420831221
:1000B800B010FF30B300B101831687118B1783127C
:1000C800B01C672868286328B010310A03196D2806
:1000D8006E2876283108AA00AB012A08AC002B0844
:1000E800AD007A28FE30AC000030AD002C08B1001D
:1000F800310803198028812889283108AA00AB0112
:100108002A08AE002B08AF008D280130AE00003061
:10011800AF002E08B100003030180230FF3EDF007B
:100128005F08B1073109B30063280B2883168112D1
:1001380081110108F839023881008B158B160800E7
:0A01480083160515071416150800AC
:02400E00B43FBD
:00000001FF
